:020000040800F2
:10000000600600200D020008150200081702000813
:10001000190200081B0200081D0200080000000071
:100020000000000000000000000000001F020008A7
:100030002102000800000000230200082502000839
:1000400027020008270200082702000827020008EC
:1000500027020008270200082702000827020008DC
:1000600027020008270200082702000827020008CC
:1000700027020008270200082702000827020008BC
:1000800027020008270200082702000827020008AC
:10009000270200082702000827020008270200089C
:1000A000270200082702000827020008270200088C
:1000B000270200082702000827020008270200087C
:1000C000270200082702000827020008270200086C
:1000D000270200082702000827020008270200085C
:1000E000270200082702000827020008270200084C
:1000F000270200082702000827020008270200083C
:10010000270200082702000827020008270200082B
:10011000270200082702000827020008270200081B
:10012000270200082702000827020008270200080B
:1001300027020008270200082702000827020008FB
:1001400027020008270200082702000827020008EB
:1001500027020008270200082702000827020008DB
:1001600027020008270200082702000827020008CB
:1001700027020008270200082702000827020008BB
:10018000270200082702000800F002F800F02EF80D
:100190000AA090E8000C82448344AAF10107DA45E2
:1001A00001D100F023F8AFF2090EBAE80F0013F006
:1001B000010F18BFFB1A43F001031847D4030000D6
:1001C000E40300000023002400250026103A28BF85
:1001D00078C1FBD8520728BF30C148BF0B607047B9
:1001E0001FB500F0CFF91FBD10B510BD00F031F8FC
:1001F0001146FFF7F5FF00F011F900F04FF803B4D6
:10020000FFF7F2FF03BC00F057F8000009488047F1
:1002100009480047FEE7FEE7FEE7FEE7FEE7FEE7E8
:10022000FEE7FEE7FEE7FEE704480549054A064B00
:1002300070470000B5030008890100086000002035
:1002400060060020600200206002002070477047B6
:100250007047754600F02CF8AE46050069465346D7
:1002600020F00700854618B020B5FFF7DDFFBDE898
:1002700020404FF000064FF000074FF000084FF00D
:10028000000B21F00701AC46ACE8C009ACE8C0099E
:10029000ACE8C009ACE8C0098D46704710B504460B
:1002A000AFF300802046BDE81040FFF7A8BF000074
:1002B000004870470000002001491820ABBEFEE74F
:1002C00026000200704700000CB50020019000904D
:1002D0003448006840F480303249086000BF31483B
:1002E000006800F4003000900198401C01900098D4
:1002F00018B90198B0F5A04FF1D12A48006800F470
:10030000003010B10120009001E000200090009822
:10031000012846D123484030006840F080502149F0
:10032000403108602048006840F440401E490860A1
:100330001C48083000681B490831086008460068FE
:1003400040F4004008600846006840F4A05008608F
:100350001648091F0860081F006840F08070091FD8
:10036000086000BF0F48006800F000700028F9D056
:1003700040F205700E4908600A480830006820F015
:1003800003000849083108600846006840F0020090
:10039000086000BF03480830006800F00C0008281F
:1003A000F8D10CBD003802400070004019544007DD
:1003B000003C024010B51548006840F47000134935
:1003C00008601348006840F00100114908600020EF
:1003D0000F49083108600E4800680E4908400C4972
:1003E00008600D48091D0860081F006820F480207F
:1003F000091F0860002006490C310860FFF764FF00
:100400004FF0006001498039086010BD88ED00E0C0
:1004100000380240FFFFF6FE103000245448006808
:1004200040F00800524908600846006840F00200A9
:1004300008604F481030006840F004004C4910310B
:1004400008604C48006840F080504A4908604FF00E
:100450008050484908310860081F006820F4804037
:10046000091F086043480C30006820F040504149A3
:100470000C3108604FF480403E49143108603E481A
:10048000006840F400503C4908603B480830006870
:1004900040F48050384908310860081F006820F097
:1004A0004000091F086034480C30006820F44050B8
:1004B00031490C31086030482030006840F000704D
:1004C0002D49203108602A48006840F08000284902
:1004D00008602A48006840F0010028490860274861
:1004E0000830006840F00100244908310860081F06
:1004F000006820F00100091F086020480C300068E7
:1005000020F003001D490C3108604DF2D5101C4944
:1005100008600920091F088019482C38008820F03D
:10052000100017492C3908800846008840F0010067
:10053000088013481438008840F06C0010491439C2
:10054000088040F6BC700E49083108600C480C3831
:10055000008840F001000A490C3908800848183822
:10056000008840F0010006491839088000BFFEE706
:1005700030380240000C024000040240001C0240DF
:100580002C0800404FF04070E1EE100A7047000068
:10059000A00500080000002060060000C40100085B
:040000050800018965
:00000001FF
