:020000040800F2
:1000000070060020290200083102000833020008AF
:10001000350200083702000839020008000000001D
:100020000000000000000000000000003B0200088B
:100030003D020008000000003F02000841020008E5
:10004000430200084302000843020008430200087C
:10005000430200084302000843020008430200086C
:10006000430200084302000843020008430200085C
:10007000430200084302000843020008430200084C
:10008000430200084302000843020008430200083C
:10009000430200084302000843020008430200082C
:1000A000430200084302000843020008430200081C
:1000B000430200084302000843020008430200080C
:1000C00043020008430200084302000843020008FC
:1000D00043020008430200084302000843020008EC
:1000E00043020008430200084302000843020008DC
:1000F00043020008430200084302000843020008CC
:1001000043020008430200084302000843020008BB
:1001100043020008430200084302000843020008AB
:10012000430200084302000843020008430200089B
:10013000430200084302000843020008430200088B
:10014000430200084302000843020008430200087B
:10015000430200084302000843020008430200086B
:10016000430200084302000843020008430200085B
:10017000430200084302000843020008430200084B
:10018000430200084302000800F002F800F03CF8C7
:100190000AA090E8000C82448344AAF10107DA45E2
:1001A00001D100F031F8AFF2090EBAE80F0013F0F8
:1001B000010F18BFFB1A43F0010318475404000055
:1001C00074040000103A24BF78C878C1FAD85207E6
:1001D00024BF30C830C144BF04680C6070470000C1
:1001E0000023002400250026103A28BF78C1FBD840
:1001F000520728BF30C148BF0B6070471FB500F0E1
:1002000001FA1FBD10B510BD00F031F81146FFF71F
:10021000F5FF00F011F900F04FF803B4FFF7F2FF1B
:1002200003BC00F057F80000094880470948004720
:10023000FEE7FEE7FEE7FEE7FEE7FEE7FEE7FEE796
:10024000FEE7FEE704480549054A064B70470000F3
:10025000D10300088901000870000020700600200A
:10026000700200207002002070477047704775468A
:1002700000F02CF8AE4605006946534620F0070012
:10028000854618B020B5FFF7DDFFBDE820404FF0F0
:1002900000064FF000074FF000084FF0000B21F070
:1002A0000701AC46ACE8C009ACE8C009ACE8C0093D
:1002B000ACE8C0098D46704710B50446AFF3008026
:1002C0002046BDE81040FFF7A8BF00000048704777
:1002D0000C00002001491820ABBEFEE726000200FA
:1002E000704700000CB50020019000903448006871
:1002F00040F480303249086000BF3148006800F4A3
:10030000003000900198401C0190009818B90198A5
:10031000B0F5A04FF1D12A48006800F4003010B1C8
:100320000120009001E0002000900098012846D1B3
:1003300023484030006840F0805021494031086037
:100340002048006840F440401E4908601C480830BE
:1003500000681B49083108600846006840F4004006
:1003600008600846006840F4A05008601648091F5D
:100370000860081F006840F08070091F086000BF17
:100380000F48006800F000700028F9D040F20570B6
:100390000E4908600A480830006820F00300084948
:1003A000083108600846006840F00200086000BF9D
:1003B00003480830006800F00C000828F8D10CBD94
:1003C000003802400070004019544007003C0240D1
:1003D00010B51548006840F47000134908601348D0
:1003E000006840F001001149086000200F49083101
:1003F00008600E4800680E4908400C4908600D4826
:10040000091D0860081F006820F48020091F08608B
:10041000002006490C310860FFF764FF4FF00060D0
:1004200001498039086010BD88ED00E000380240C5
:10043000FFFFF6FE103000246C48006840F0080012
:100440006A4908600846006840F002000860674892
:100450001030006840F004006449103108606448BE
:10046000006840F08050624908604FF08050604959
:1004700008310860081F006820F48040091F0860E8
:100480005B480C30006820F0405059490C3108603E
:100490004FF480405649143108605648006840F4D3
:1004A00000505449086053480830006840F48050B8
:1004B000504908310860081F006820F04000091FFB
:1004C00008604C480C30006820F4405049490C3119
:1004D000086048482030006840F0007045492031ED
:1004E00008604248006840F0800040490860424887
:1004F000006840F00100404908603F48083000684B
:1005000040F001003C4908310860081F006820F0F5
:100510000100091F086038480C30006820F0030013
:1005200035490C3108604DF2D51034490860092076
:10053000091F088031482C38008820F010002F490E
:100540002C3908800846008840F0010008802B48BC
:100550001438008840F06C0028491439088040F6AF
:10056000BC7026490831086024480C38008840F0E7
:10057000010022490C39088020481838008840F0D2
:1005800001001E49183908802EE01C480838006810
:100590004CF60871884227D11948006890B1174875
:1005A0000830006841F66411884203D900201449DC
:1005B000086019E011480830006864300F490831BC
:1005C000086011E00D480830006840F2DC518842B4
:1005D00003D201200A49086006E008480830006894
:1005E0006438064908310860CFE70000303802401F
:1005F000000C024000040240001C02402C08004095
:10060000080000204FF04070E1EE100A7047000033
:1006100030060008000000200C000000C4010008A3
:100620003C0600080C00002064060000E001000801
:0C063000000000004B060000010000006C
:040000050800018965
:00000001FF
