:020000040800F2
:1000000078060020290200083102000833020008A7
:10001000350200083702000839020008000000001D
:100020000000000000000000000000003B0200088B
:100030003D020008000000003F02000841020008E5
:10004000430200084302000843020008430200087C
:10005000430200084302000843020008430200086C
:10006000430200084302000843020008430200085C
:10007000430200084302000843020008430200084C
:10008000430200084302000843020008430200083C
:10009000430200084302000843020008430200082C
:1000A000430200084302000843020008430200081C
:1000B000430200084302000843020008430200080C
:1000C00043020008430200084302000843020008FC
:1000D00043020008430200084302000843020008EC
:1000E00043020008430200084302000843020008DC
:1000F00043020008430200084302000843020008CC
:1001000043020008430200084302000843020008BB
:1001100043020008430200084302000843020008AB
:10012000430200084302000843020008430200089B
:10013000430200084302000843020008430200088B
:10014000430200084302000843020008430200087B
:10015000430200084302000843020008430200086B
:10016000430200084302000843020008430200085B
:10017000430200084302000843020008430200084B
:10018000430200084302000800F002F800F03CF8C7
:100190000AA090E8000C82448344AAF10107DA45E2
:1001A00001D100F031F8AFF2090EBAE80F0013F0F8
:1001B000010F18BFFB1A43F0010318470C0400009D
:1001C0002C040000103A24BF78C878C1FAD852072E
:1001D00024BF30C830C144BF04680C6070470000C1
:1001E0000023002400250026103A28BF78C1FBD840
:1001F000520728BF30C148BF0B6070471FB500F0E1
:10020000DDF91FBD10B510BD00F031F81146FFF744
:10021000F5FF00F011F900F04FF803B4FFF7F2FF1B
:1002200003BC00F057F80000094880470948004720
:10023000FEE7FEE7FEE7FEE7FEE7FEE7FEE7FEE796
:10024000FEE7FEE704480549054A064B70470000F3
:10025000D1030008890100087800002078060020FA
:10026000780200207802002070477047704775467A
:1002700000F02CF8AE4605006946534620F0070012
:10028000854618B020B5FFF7DDFFBDE820404FF0F0
:1002900000064FF000074FF000084FF0000B21F070
:1002A0000701AC46ACE8C009ACE8C009ACE8C0093D
:1002B000ACE8C0098D46704710B50446AFF3008026
:1002C0002046BDE81040FFF7A8BF00000048704777
:1002D0001800002001491820ABBEFEE726000200EE
:1002E000704700000CB50020019000903448006871
:1002F00040F480303249086000BF3148006800F4A3
:10030000003000900198401C0190009818B90198A5
:10031000B0F5A04FF1D12A48006800F4003010B1C8
:100320000120009001E0002000900098012846D1B3
:1003300023484030006840F0805021494031086037
:100340002048006840F440401E4908601C480830BE
:1003500000681B49083108600846006840F4004006
:1003600008600846006840F4A05008601648091F5D
:100370000860081F006840F08070091F086000BF17
:100380000F48006800F000700028F9D040F20570B6
:100390000E4908600A480830006820F00300084948
:1003A000083108600846006840F00200086000BF9D
:1003B00003480830006800F00C000828F8D10CBD94
:1003C000003802400070004019544007003C0240D1
:1003D00010B51548006840F47000134908601348D0
:1003E000006840F001001149086000200F49083101
:1003F00008600E4800680E4908400C4908600D4826
:10040000091D0860081F006820F48020091F08608B
:10041000002006490C310860FFF764FF4FF00060D0
:1004200001498039086010BD88ED00E000380240C5
:10043000FFFFF6FE103000245948006840F0080025
:100440005749086056481030006840F0040054498D
:10045000103108605348006840F0805051490860EE
:100460004FF080504F4908310860081F006820F4A1
:100470008040091F08604B480C30006820F0405055
:1004800048490C3108604FF48040464914310860F7
:100490004348006840F080004149086042480068D5
:1004A00040F00100404908603F480830006840F0D3
:1004B00001003D4908310860081F006820F0010074
:1004C000091F086038480C30006820F003003649E6
:1004D0000C3108604DF2D510344908600920091F1D
:1004E000088032482C38008820F010002F492C3921
:1004F00008800846008840F0010008804EE02B4844
:10050000083800682A490968884215D929480068CE
:10051000401C2849086023481430006820F48040BB
:1005200020491431086020481430006820F0010090
:100530001D49143108600FE01B481430006840F07A
:10054000010019491431086016481430006840F45D
:1005500080401449143108601748006878B1144885
:10056000006841F2C641884203DD0020124908605C
:1005700014E00F480068C01C0D4908600EE00C48EC
:10058000006840F24B61884203DA01200A490860A2
:1005900004E007480068C01E05490860AFE7000096
:1005A00030380240000C0240001C02402C08004081
:1005B000100000200C000020140000204FF04070BC
:1005C000E1EE100A70470000E80500080000002076
:1005D00018000000C40100080006000818000020F0
:1005E00060060000E00100080000000000000000BC
:1005F00000000000000000004B06000001000000A9
:040000050800018965
:00000001FF
